{
  "contractName": "AddressBook",
  "abi": [
    {
      "inputs": [],
      "payable": false,
      "stateMutability": "nonpayable",
      "type": "constructor"
    },
    {
      "constant": true,
      "inputs": [],
      "name": "getId",
      "outputs": [
        {
          "name": "id_",
          "type": "uint256"
        }
      ],
      "payable": false,
      "stateMutability": "view",
      "type": "function"
    },
    {
      "constant": false,
      "inputs": [
        {
          "name": "_problems",
          "type": "string"
        },
        {
          "name": "_medications",
          "type": "string"
        },
        {
          "name": "_allergies",
          "type": "string"
        },
        {
          "name": "_weight",
          "type": "string"
        },
        {
          "name": "_height",
          "type": "string"
        },
        {
          "name": "_record_owner",
          "type": "address"
        }
      ],
      "name": "newContact",
      "outputs": [
        {
          "name": "_id",
          "type": "uint256"
        }
      ],
      "payable": false,
      "stateMutability": "nonpayable",
      "type": "function"
    },
    {
      "constant": true,
      "inputs": [
        {
          "name": "_record_owner",
          "type": "address"
        }
      ],
      "name": "getContact",
      "outputs": [
        {
          "name": "_problems",
          "type": "string"
        },
        {
          "name": "_medications",
          "type": "string"
        },
        {
          "name": "_allergies",
          "type": "string"
        },
        {
          "name": "_weight",
          "type": "string"
        },
        {
          "name": "_height",
          "type": "string"
        }
      ],
      "payable": false,
      "stateMutability": "view",
      "type": "function"
    },
    {
      "constant": false,
      "inputs": [
        {
          "name": "_problems",
          "type": "string"
        },
        {
          "name": "_medications",
          "type": "string"
        },
        {
          "name": "_allergies",
          "type": "string"
        },
        {
          "name": "_weight",
          "type": "string"
        },
        {
          "name": "_height",
          "type": "string"
        },
        {
          "name": "_record_owner",
          "type": "address"
        }
      ],
      "name": "updateContact",
      "outputs": [],
      "payable": false,
      "stateMutability": "nonpayable",
      "type": "function"
    }
  ],
  "bytecode": "0x608060405234801561001057600080fd5b50336000806101000a81548173ffffffffffffffffffffffffffffffffffffffff021916908373ffffffffffffffffffffffffffffffffffffffff160217905550610f2d806100606000396000f300608060405260043610610062576000357c0100000000000000000000000000000000000000000000000000000000900463ffffffff1680630ebe5abc146100675780635d1ca63114610136578063a0ba38ef14610161578063f96a181e14610302575b600080fd5b34801561007357600080fd5b50610120600480360381019080803590602001908201803590602001919091929391929390803590602001908201803590602001919091929391929390803590602001908201803590602001919091929391929390803590602001908201803590602001919091929391929390803590602001908201803590602001919091929391929390803573ffffffffffffffffffffffffffffffffffffffff16906020019092919050505061056e565b6040518082815260200191505060405180910390f35b34801561014257600080fd5b5061014b610850565b6040518082815260200191505060405180910390f35b34801561016d57600080fd5b50610300600480360381019080803590602001908201803590602001908080601f0160208091040260200160405190810160405280939291908181526020018383808284378201915050505050509192919290803590602001908201803590602001908080601f0160208091040260200160405190810160405280939291908181526020018383808284378201915050505050509192919290803590602001908201803590602001908080601f0160208091040260200160405190810160405280939291908181526020018383808284378201915050505050509192919290803590602001908201803590602001908080601f0160208091040260200160405190810160405280939291908181526020018383808284378201915050505050509192919290803590602001908201803590602001908080601f0160208091040260200160405190810160405280939291908181526020018383808284378201915050505050509192919290803573ffffffffffffffffffffffffffffffffffffffff1690602001909291905050506108b5565b005b34801561030e57600080fd5b50610343600480360381019080803573ffffffffffffffffffffffffffffffffffffffff1690602001909291905050506109d0565b60405180806020018060200180602001806020018060200186810386528b818151815260200191508051906020019080838360005b83811015610393578082015181840152602081019050610378565b50505050905090810190601f1680156103c05780820380516001836020036101000a031916815260200191505b5086810385528a818151815260200191508051906020019080838360005b838110156103f95780820151818401526020810190506103de565b50505050905090810190601f1680156104265780820380516001836020036101000a031916815260200191505b50868103845289818151815260200191508051906020019080838360005b8381101561045f578082015181840152602081019050610444565b50505050905090810190601f16801561048c5780820380516001836020036101000a031916815260200191505b50868103835288818151815260200191508051906020019080838360005b838110156104c55780820151818401526020810190506104aa565b50505050905090810190601f1680156104f25780820380516001836020036101000a031916815260200191505b50868103825287818151815260200191508051906020019080838360005b8381101561052b578082015181840152602081019050610510565b50505050905090810190601f1680156105585780820380516001836020036101000a031916815260200191505b509a505050505050505050505060405180910390f35b600060328c8c905011158015610588575060328a8a905011155b8015610598575060328888905011155b80156105a8575060328686905011155b80156105b8575060328484905011155b15156105c357600080fd5b60a0604051908101604052808d8d8080601f01602080910402602001604051908101604052809392919081815260200183838082843782019150505050505081526020018b8b8080601f016020809104026020016040519081016040528093929190818152602001838380828437820191505050505050815260200189898080601f016020809104026020016040519081016040528093929190818152602001838380828437820191505050505050815260200187878080601f016020809104026020016040519081016040528093929190818152602001838380828437820191505050505050815260200185858080601f0160208091040260200160405190810160405280939291908181526020018383808284378201915050505050508152506004600060015481526020019081526020016000206000820151816000019080519060200190610716929190610dac565b506020820151816001019080519060200190610733929190610dac565b506040820151816002019080519060200190610750929190610dac565b50606082015181600301908051906020019061076d929190610dac565b50608082015181600401908051906020019061078a929190610dac565b509050508160026000600154815260200190815260200160002060006101000a81548173ffffffffffffffffffffffffffffffffffffffff021916908373ffffffffffffffffffffffffffffffffffffffff160217905550600154600360008473ffffffffffffffffffffffffffffffffffffffff1673ffffffffffffffffffffffffffffffffffffffff16815260200190815260200160002081905550600160008154809291906001019190505550600180540390509b9a5050505050505050505050565b60008060009054906101000a900473ffffffffffffffffffffffffffffffffffffffff1673ffffffffffffffffffffffffffffffffffffffff163373ffffffffffffffffffffffffffffffffffffffff161415156108ad57600080fd5b600154905090565b6000808273ffffffffffffffffffffffffffffffffffffffff163373ffffffffffffffffffffffffffffffffffffffff161415156108f257600080fd5b600360008473ffffffffffffffffffffffffffffffffffffffff1673ffffffffffffffffffffffffffffffffffffffff16815260200190815260200160002054915060046000838152602001908152602001600020905087816000019080519060200190610961929190610e2c565b508681600101908051906020019061097a929190610e2c565b5085816002019080519060200190610993929190610e2c565b50848160030190805190602001906109ac929190610e2c565b50838160040190805190602001906109c5929190610e2c565b505050505050505050565b606080606080606060006109e2610eac565b600360008973ffffffffffffffffffffffffffffffffffffffff1673ffffffffffffffffffffffffffffffffffffffff1681526020019081526020016000205491506004600083815260200190815260200160002060a06040519081016040529081600082018054600181600116156101000203166002900480601f016020809104026020016040519081016040528092919081815260200182805460018160011615610100020316600290048015610adc5780601f10610ab157610100808354040283529160200191610adc565b820191906000526020600020905b815481529060010190602001808311610abf57829003601f168201915b50505050508152602001600182018054600181600116156101000203166002900480601f016020809104026020016040519081016040528092919081815260200182805460018160011615610100020316600290048015610b7e5780601f10610b5357610100808354040283529160200191610b7e565b820191906000526020600020905b815481529060010190602001808311610b6157829003601f168201915b50505050508152602001600282018054600181600116156101000203166002900480601f016020809104026020016040519081016040528092919081815260200182805460018160011615610100020316600290048015610c205780601f10610bf557610100808354040283529160200191610c20565b820191906000526020600020905b815481529060010190602001808311610c0357829003601f168201915b50505050508152602001600382018054600181600116156101000203166002900480601f016020809104026020016040519081016040528092919081815260200182805460018160011615610100020316600290048015610cc25780601f10610c9757610100808354040283529160200191610cc2565b820191906000526020600020905b815481529060010190602001808311610ca557829003601f168201915b50505050508152602001600482018054600181600116156101000203166002900480601f016020809104026020016040519081016040528092919081815260200182805460018160011615610100020316600290048015610d645780601f10610d3957610100808354040283529160200191610d64565b820191906000526020600020905b815481529060010190602001808311610d4757829003601f168201915b50505050508152505090508060000151816020015182604001518360600151846080015184945083935082925081915080905096509650965096509650505091939590929450565b828054600181600116156101000203166002900490600052602060002090601f016020900481019282601f10610ded57805160ff1916838001178555610e1b565b82800160010185558215610e1b579182015b82811115610e1a578251825591602001919060010190610dff565b5b509050610e289190610edc565b5090565b828054600181600116156101000203166002900490600052602060002090601f016020900481019282601f10610e6d57805160ff1916838001178555610e9b565b82800160010185558215610e9b579182015b82811115610e9a578251825591602001919060010190610e7f565b5b509050610ea89190610edc565b5090565b60a06040519081016040528060608152602001606081526020016060815260200160608152602001606081525090565b610efe91905b80821115610efa576000816000905550600101610ee2565b5090565b905600a165627a7a72305820f537a5a4432f788ad50253f1636dddadc6c2530b64966617af782fc3d05883470029",
  "source": "pragma solidity ^0.4.18;\n\n/*\n\tmake an app where you put health records on the blockchain using truffle (or remix if you're running into issues)\n\n\tyou'll allow anyone to fill out a form that consists of \n\n\tproblems, medications, allergies, weight, height\n\n\tyou'll associate these to an address\n\n\tyou'll make a form that let's anyone retrieve anyone's health record based on an ethereum address entered into the form.\n\n\tbonus one: \n\n\tallow only the person who created the health record to update the health record's information\n\n*/\n\ncontract AddressBook{\n\t//each contact will store: problems, medications, allergies, weight, height\n\tstruct Contact {\n\t\tstring problems;\n\t\tstring medications;\n\t\tstring allergies;\n\t\tstring weight;\n\t\tstring height;\n\t}\n\n\t//way one\n\t\taddress internal owner;\n\n\t\t//keeping track of the next contact id\n\t\tuint id; //uint is an alias for uint256. it defaults to 0. the highest it goes up to is 2^256-1\n\n\t\t//data structure that maps one data type to another, generally one maps uint, address or bytes32 to another data structure\n\t\tmapping (uint => address) id_to_record_owner;\n\t\tmapping (address => uint) record_owner_to_id;\n\t\tmapping (uint => Contact) id_to_contact;\n\n\t\tconstructor() public{\n\t\t\towner = msg.sender;\n\t\t}\n\n\t\tfunction getId() view public returns (uint id_){\n\t\t\trequire(msg.sender == owner);\n\t\t\treturn id;\n\t\t}\n\n\t//way two\n\t\t// mapping (address => Contact) record_owner_to_contact;\n\n\t//this costs gas\n\tfunction newContact(string _problems, string _medications, string _allergies, string _weight, string _height, address _record_owner) external returns (uint _id) {\n\n\t\trequire( (bytes(_problems).length <= 50) && (bytes(_medications).length <= 50) && (bytes(_allergies).length <= 50) && (bytes(_weight).length <= 50) && (bytes(_height).length <= 50));\n\n\t    // Creates new struct and saves in storage. We leave out the mapping type.\n\t    id_to_contact[id] = Contact(_problems, _medications, _allergies, _weight, _height);\n\t    id_to_record_owner[id] = _record_owner;\n\t    record_owner_to_id[_record_owner] = id;\n\n\t    id++;\n\n\t    return id-1;\n\t}\n\n\t// this doesn't cost gas\n\t//view means that the function accesses state but doesn't change it\n\tfunction getContact(address _record_owner) view public returns (string _problems, string _medications, string _allergies, string _weight, string _height) {\n\t\t\n\t\t//make sure that the person who is getting the medical record information is the person who owns that medical record\n\t\t// require(msg.sender == _record_owner);\n\n\t\tuint idd = record_owner_to_id[_record_owner];\n\n\t    Contact memory con = id_to_contact[idd];\n\n\t    //we unfortunately can't return the struct, we have to return it in in a tuple like this\n\t    return (con.problems, con.medications, con.allergies, con.weight, con.height);\n\t}\n\n\tfunction updateContact(string _problems, string _medications, string _allergies, string _weight, string _height, address _record_owner) public {\n\t\t\n\t\t//make sure that the person who is getting the medical record information is the person who owns that medical record\n\t\trequire(msg.sender == _record_owner);\n\n\t\tuint idd = record_owner_to_id[_record_owner];\n\n\t    Contact storage con = id_to_contact[idd];\n\n\t    con.problems = _problems;\n\t    con.medications = _medications;\n\t    con.allergies = _allergies;\n\t    con.weight = _weight;\n\t    con.height = _height;\n\t}\n\n\n\n\n}\n\n\n\n\n\n\n\n\n\n\n\n",
  "sourcePath": "/Users/himanshu/Documents/software/books/packt/gscp/contracts/AddressBook.sol",
  "compiler": {
    "name": "solc",
    "version": "0.4.24+commit.e67f0147.Emscripten.clang"
  },
  "schemaVersion": "2.0.1",
  "updatedAt": "2019-08-22T02:14:02.930Z"
}